:020000040000FA
:100000002100F030990006308C0023008C01200084
:100010008C0122008C0124002830950000309600CD
:1000200013309200003094000000200041200C109A
:1000300000008C1241202120D030242027203420A1
:1000400014283720161408003720910008003720A4
:100050002400161F30282C28000020000C14332800
:10006000000020008C16080037201615080000003C
:1000700024001419392803111F301605031D3B28CD
:1000800008004730A0007130A1001230A200A00B80
:100090004A28A10B4C28A20B47284E284F2850284D
:0200A000080056
:020000040001F9
:02000E00843F2D
:020010001316C5
:00000001FF
